:100000000C945E000C9486000C9486000C94860080
:100010000C9486000C9486000C9486000C94860048
:100020000C9486000C9486000C9486000C94860038
:100030000C9486000C9486000C9486000C94860028
:100040000C9409080C9486000C9486000C9486008D
:100050000C9486000C9486000C9486000C94860008
:100060000C9453080C948600000000002400270024
:100070002A0000000000250028002B0004040404CE
:100080000404040402020202020203030303030342
:10009000010204081020408001020408102001021F
:1000A00004081020000000080002010000030407FB
:1000B0000000000000000000BB09F60E11241FBE66
:1000C000CFEFD8E0DEBFCDBF22E0ACE9B1E001C0A8
:1000D0001D92A53DB207E1F711E0A0E0B1E0EAE929
:1000E000F6E202C005900D92AC39B107D9F710E0E5
:1000F000CDE5D0E004C02197FE010E943F11CC3530
:10010000D107C9F70E944D0A0C9440130C940000CB
:100110008091BC029091BD0291FF07C09D7F90939A
:10012000BD028093BC0281E0089580E0089590E0D4
:10013000FC01EC55FF4F2491FC01E057FF4F349137
:10014000FC01E458FF4FE491EE23C9F0222339F07B
:10015000233001F1A8F4213019F1223029F1F0E027
:10016000EE0FFF1FEE58FF4FA591B4918FB7F89493
:10017000EC91611126C030953E233C938FBF0895CA
:100180002730A9F02830C9F0243049F78091800049
:100190008F7D03C0809180008F7780938000DFCFB8
:1001A00084B58F7784BDDBCF84B58F7DFBCF809105
:1001B000B0008F778093B000D2CF8091B0008F7D58
:1001C000F9CF3E2BDACFCF93DF9390E0FC01E057DD
:1001D000FF4F249184589F4FFC0184918823D1F0D4
:1001E00090E0880F991FFC01E859FF4FA591B49149
:1001F000FC01EE58FF4FC591D491623071F49FB766
:10020000F8943C91822F809583238C93E8812E2B48
:1002100028839FBFDF91CF9108958FB7F894EC9119
:100220002E2B2C938FBFF6CF3FB7F89480916102AD
:1002300090916202A0916302B091640226B5A89BDE
:1002400005C02F3F19F00196A11DB11D3FBFBA2F68
:10025000A92F982F8827BC01CD01620F711D811D28
:10026000911D42E0660F771F881F991F4A95D1F7AD
:1002700008958F929F92AF92BF92CF92DF92EF92AA
:10028000FF926B017C010E9414014B015C01C114BF
:10029000D104E104F104B9F00E941401681979094C
:1002A0008A099B09683E73408105910580F321E02E
:1002B000C21AD108E108F10888EE880E83E0981E82
:1002C000A11CB11CE4CFFF90EF90DF90CF90BF90C6
:1002D000AF909F908F90089508950895AF92BF9228
:1002E000CF92DF92EF92FF920F931F93CF93DF9302
:1002F0006C017B018B01040F151FEB015E01AE1831
:10030000BF08C017D10759F06991D601ED91FC9152
:100310000190F081E02DC6010995892B79F7C5017F
:10032000DF91CF911F910F91FF90EF90DF90CF90D1
:10033000BF90AF900895FC01448155816081718127
:1003400085EC92E00C946E012091DF01260F33279B
:10035000331F21323105ECF420912802FC0190E09A
:1003600080E0243069F082E00895A091DF012191BE
:10037000AC0141545E4FA40FB52FB11D2C930196D3
:10038000861798F38091DF01680F6093DF0180E0AA
:10039000089581E008951092280281E08093270259
:1003A0001092020261E082E10E94970061E083E125
:1003B0000E949700E9EBF0E080818E7F808380814E
:1003C0008D7F808388E48093B80085E48093BC00AF
:1003D0000895CF93DF9391E09093BE018823B9F005
:1003E000C091B800D091BA008091BC008A7B809304
:1003F000BC0060E082E10E94970060E083E10E941F
:1004000097000E94CB01D093BA00C093B800DF914F
:10041000CF9108950895E091570280915602E81710
:1004200030F4F0E0E256FE4F808190E008958FEFC7
:100430009FEF089590915702809156022FEF3FEF62
:10044000981748F4E92FF0E0E256FE4F208130E0A3
:100450009F5F90935702C901089580915602909131
:100460005702891B990B0895CF92DF92EF92FF926A
:100470000F931F93CF93DF937C01CB018A012091CF
:100480002E02222389F0EB016B01C40ED51ECC1580
:10049000DD0569F06991D701ED91FC910190F08142
:1004A000E02DC7010995F3CF642F0E94A401C80174
:1004B000DF91CF911F910F91FF90EF90DF90CF9040
:1004C0000895CF93DF931F92CDB7DEB76983209154
:1004D0002E022223F9F020915402203258F021E01C
:1004E00030E0FC013383228390E080E00F90DF91C5
:1004F000CF91089580915502E82FF0E0E15DFD4F26
:10050000998190838F5F809355028093540281E09C
:1005100090E0ECCF61E0CE0101960E94A401F7CFFC
:10052000CF92DF92EF92FF920F931F93CF93DF93BF
:10053000D62F672FFC01C48181E080932E02C093E7
:100540004F02109255021092540285E692E00E94EA
:1005500061026D2F85E692E00E946102D091540203
:10056000D13208F092C00E9414016B017C0180918D
:100570002802811165C082E08093280281E0809387
:1005800027028FEF8093260210922502D093240237
:10059000AFE2B2E0E4E0F2E080E0D81385C0109270
:1005A000030280910302CC0FC82BC09303028091F9
:1005B0000202813009F07CC0109202020E941401F4
:1005C0006B017C01809103028093BB0080912A0221
:1005D00090912B02A0912C02B0912D02892B8A2B95
:1005E0008B2B99F00E94140100912A0210912B028A
:1005F00020912C0230912D026C197D098E099F09E2
:100600000617170728073907E0F18091BC0083FD22
:10061000D9CF85EC8093BC000E9414016B017C0152
:1006200080912802823009F445C0809126028F3FD4
:1006300061F180912602803241F18091260225C02D
:1006400080912A0290912B02A0912C02B0912D0250
:10065000892B8A2B8B2B09F48ACF0E9414010091DD
:100660002A0210912B0220912C0230912D026C193C
:100670007D098E099F09061717072807390708F013
:1006800076CF809129020E94E901109255021092C2
:10069000540210922E02DF91CF911F910F91FF9083
:1006A000EF90DF90CF9008959D9191938F5F75CFDC
:1006B00085EEB0CF80912A0290912B02A0912C025E
:1006C000B0912D02892B8A2B8B2B09F4A9CF0E9484
:1006D000140100912A0210912B0220912C023091DA
:1006E0002D026C197D098E099F0906171707280727
:1006F000390708F095CFC5CFCF93DF93CDB7DEB7DD
:1007000028970FB6F894DEBF0FBECDBF98E0E0E1AA
:10071000F1E0DE01119601900D929A95E1F790912A
:10072000CD02961710F46FEF690F70E0660F771F18
:1007300021E030E02C0F3D1F620F731FFB01608131
:10074000860F8068682F70E085EC92E028960FB6DF
:10075000F894DEBF0FBECDBFDF91CF910C94900215
:1007600061E070E085EC92E00E9490028BE39FE1F3
:100770000197F1F78091CE02882321F060E080E0BC
:100780000C947C03089570E070640E94900281E0F4
:1007900090E00895089590E080E008950F931F93EE
:1007A000CF93DF938C01EB0161E08DE00E94970015
:1007B000C01BD10B003187E21807F4F40230110599
:1007C00040F0C801880F991F880F991F059701975E
:1007D000F1F760E08DE00E949700C230D10538F05B
:1007E000CC0FDD1FCC0FDD1F25972197F1F7DF918F
:1007F000CF911F910F910895B801110F880B990B9C
:100800000E941C0F2DEC3CEC4CEC5DE30E947B0F36
:100810000E94DD10072E000C880B990B0E941C0F04
:100820002AE037ED43E25CE30E947B0F0E94E41074
:100830000E94390160E08DE00E949700BE01DD0F4B
:10084000880B990B0E941C0F2DEC3CEC4CEC5DE3EB
:100850000E947B0F0E94DD10072E000C880B990B65
:100860000E941C0F2AE037ED43E25CE30E947B0FFD
:100870000E94E410DF91CF911F910F910C943901E8
:100880004F925F926F927F928F929F92AF92BF92A0
:10089000CF92DF92EF92FF920F931F93CF93DF934C
:1008A0003C019091BE02892F8F70883009F5690153
:1008B0007B01907F9093BE02D0E0C0E04A01550FCB
:1008C000AA08BB08C017D1079CF4512C412C4C142A
:1008D0005D0444F4B701C3010E94CE038FEF481AB0
:1008E000580AF5CFC501B4010E9439012196EACF1B
:1008F000DF91CF911F910F91FF90EF90DF90CF90FC
:10090000BF90AF909F908F907F906F905F904F902F
:1009100008950E9488008823A1F180910801909198
:1009200009012091C10227FB222720F9883E33E0EC
:10093000930754F5222331F12FEF821B910927FDF4
:1009400093959093090180930801809108019091FB
:100950000901449734F484E190E090930901809375
:1009600008018091080190910901209106013091C0
:100970000701281739072CF00197909307018093FE
:100980000601089521E0D9CFAC01485E53404832BA
:10099000534258F4222339F02FEF36EF2302800D13
:1009A000911D1124CECF21E0F8CF4FEF211101C0CE
:1009B00041E068E17CEF46039001479F300D112430
:1009C000820F931FBECF0E9488008823A1F18091DF
:1009D0000601909107012091C10227FB222720F9EF
:1009E000883E33E0930754F5222331F12FEF821B29
:1009F000910927FD939590930701809306018091BB
:100A00000601909107010A9734F48AE090E09093F0
:100A100007018093060180910601909107012091C2
:100A2000080130910901281739072CF40196909399
:100A3000090180930801089521E0D9CFAC01485EF7
:100A400053404832534258F4222339F02FEF36EF07
:100A50002302800D911D1124CECF21E0F8CF4FEF5E
:100A6000211101C041E068E17CEF46039001479FFE
:100A7000300D1124820F931FBECFFC010190002086
:100A8000E9F73197AF01481B590BBC0185EC92E0A7
:100A90000C946E018F929F92AF92BF920F931F930F
:100AA000CF93DF93CDB7DEB7A1970FB6F894DEBF33
:100AB0000FBECDBF19A2423008F44AE08E010F5D8F
:100AC0001F4F842E912CB12CA12CA50194010E94C2
:100AD0001D11E62FB901CA01EA30F4F4E05DD80136
:100AE000EE938D01232B242B252B79F790E080E0CA
:100AF000109719F0CD010E943D05A1960FB6F8940C
:100B0000DEBF0FBECDBFDF91CF911F910F91BF9080
:100B1000AF909F908F900895E95CE1CFCF92DF92E4
:100B2000EF92FF926C01990FEE08FF08F7FE16C0D6
:100B30006DE270E485EC92E00E94900266277727D0
:100B4000CB016C197D098E099F094AE00E944A0574
:100B50000196FF90EF90DF90CF9008954AE0C70193
:100B6000B601FF90EF90DF90CF900C944A050C9463
:100B70003D054F925F926F927F928F929F92AF92BC
:100B8000BF92CF92DF92EF92FF92CF93DF936B01F0
:100B90007C01AC019B010E941811882391F086E32F
:100BA00091E0DF91CF91FF90EF90DF90CF90BF90D9
:100BB000AF909F908F907F906F905F904F900C942C
:100BC0003D0546015701E894B7F82FEF3FEF4FE797
:100BD0005FE7C501B4010E94181181110DC02FEF0C
:100BE0003FEF4FE75FE7C501B4010E94150F1816EC
:100BF0001CF48AE391E0D5CF2FEF3FEF4FE75FE49E
:100C0000C701B6010E94131118161CF48EE391E07F
:100C1000C8CF2FEF3FEF4FE75FECC701B6010E944F
:100C2000150F87FDF3CF20E030E0A901C701B60121
:100C30000E94150FD0E0C0E087FF0CC06DE270E4A9
:100C400085EC92E00E949002F7FAF094F7F8F094A5
:100C5000C1E0D0E02AE037ED43EA5BE3C701B6012B
:100C60000E9471104B015C010E94E4106B017C0139
:100C70000E941A0F9B01AC01C501B4010E947010C3
:100C80004B015C014AE0C701B6010E944A057C01A4
:100C9000EC0EFD1E6EE270E485EC92E00E94900284
:100CA0008FEFE81AF80A20E030E040E251E4C50195
:100CB000B4010E947B0F2B013C010E94E4104B0108
:100CC000B12CA12C4AE0C501B4010E944A05E80EEE
:100CD000F91EC501B4010E941A0F9B01AC01C301AA
:100CE000B2010E94701020E030E040E251E40E9426
:100CF0007B0F0E94E41090E080E04AE00E944A05E9
:100D00008E0D9F1DDF91CF91FF90EF90DF90CF90E0
:100D1000BF90AF909F908F907F906F905F904F901B
:100D20000895FC0124813581232B39F421E0FB0156
:100D30008081882349F020E007C0808191810E9452
:100D4000301321E0892BB9F7822F0895CF92DF92DB
:100D5000EF92FF920F931F93CF93DF93EC016B0100
:100D600060E080E00E947C0386E08C9F80018D9F84
:100D7000100D1124E601C00FD11FCE010E949B016E
:100D800060E089E00E947C0362E471E0CE010E9491
:100D90009106882379F0E0900601F090070128EE93
:100DA000E21623E0F206BCF4C7010E948E058BE434
:100DB00091E038C061E571E0CE010E949106882380
:100DC00009F455C0E0900801F090090188EEE8169A
:100DD00083E0F8064CF3B7010F2C000C880B990B3D
:100DE0000E941C0F2DEC3CEC4CEC5DE30E947B0F51
:100DF0000E94DD10072E000C880B990B0E941C0F1F
:100E00002AE037ED43E25CE30E947B0F20E1E2162B
:100E100027E2F2064CF10E94DD10CB010E948E0504
:100E20008EE491E00E94B70560E08FE00E947C03B1
:100E30006FE770E485EC92E00E94900261E080E050
:100E40000E947C036BE671E0CE010E94910688232C
:100E5000A9F1C601DF91CF911F910F91FF90EF9003
:100E6000DF90CF900C949B010E94B905D9CF68E523
:100E700071E0CE010E949106882329F08091000143
:100E800090910101CBCF6EE571E0CE010E949106F9
:100E9000882339F080910201909103010E948E0510
:100EA000C3CF64E671E0CE010E949106882309F465
:100EB000BBCF8091040190910501F0CFC801069647
:100EC0008C0D9D1DC7CFCF93DF93C0919C01D09116
:100ED0009D012097B1F1C130D10509F44AC06C2FB2
:100EE0008FE00E947C036FE770E485EC92E00E9443
:100EF00090028091BC029091BD0280FF10C08E7F55
:100F00009093BD028093BC02209709F044C081E019
:100F100090E090939D0180939C010E94B00360E05B
:100F200080E00E947C0380E791E00E94B70561E0C9
:100F300080E00E947C038AE791E0DF91CF910C94DE
:100F4000B7058091BE02982F9F70983041F6807F40
:100F50008093BE0281E080935B020E94B00369E847
:100F600072E08091580290915902DF91CF910C94D8
:100F7000A6068091BE02982F9F70983009F0AFCFDF
:100F8000807F8093BE0281E080935A020E94B0036A
:100F900061E772E0E6CF2197D0939D01C0939C0159
:100FA000BCCF85ED8093BC0080912A0290912B02EA
:100FB000A0912C02B0912D020796A11DB11D23E036
:100FC000B695A795979587952A95D1F72091BC005E
:100FD00024FD03C010922802089540912A025091E6
:100FE0002B0260912C0270912D02452B462B472B32
:100FF00069F30097A105B10541F02AE22A95F1F7BE
:1010000000C00197A109B109E1CF809129020C9498
:10101000E9011F920F920FB60F9211242F933F9365
:101020008F939F93AF93BF9380915D0290915E02E7
:10103000A0915F02B091600230915C0223E0230F27
:101040002D3758F50196A11DB11D20935C028093A8
:101050005D0290935E02A0935F02B0936002809164
:10106000610290916202A0916302B09164020196C4
:10107000A11DB11D8093610290936202A09363024F
:10108000B0936402BF91AF919F918F913F912F9147
:101090000F900FBE0F901F90189526E8230F029611
:1010A000A11DB11DD2CF1F920F920FB60F92112426
:1010B0002F933F934F935F936F937F938F939F9360
:1010C000AF93BF93EF93FF938091B900887F8036F1
:1010D00009F44AC0F0F5883209F4A7C018F5803148
:1010E00009F49BC0B8F4882309F4F9C0883009F4E6
:1010F00094C0FF91EF91BF91AF919F918F917F919C
:101100006F915F914F913F912F910F900FBE0F9074
:101110001F901895883109F488C0803251F7809368
:10112000260214C0803409F49DC040F48033B9F322
:101130008833F9F68093260285ECB0C0803509F437
:1011400085C0883509F496C0883499F60E94D10785
:10115000D0CF883909F48CC038F5883729F050F49D
:10116000883611F0803729F683E0809328021092A8
:10117000010257C0883809F47BC0803919F08038E3
:1011800009F0B7CF80910102803208F071C0E09180
:10119000010281E08E0F809301028091BB00F0E09C
:1011A000EF51FE4F80833DC0803B39F0E0F4803A40
:1011B00009F479C0883A09F09CCF84E08093280232
:1011C0001092E0011092DF01E0915202F09153027F
:1011D00009958091DF0181110FC081E08093DF01CB
:1011E0001092BF0109C0803C09F4A6CF883C09F4E5
:1011F000A3CF883B09F07DCFE091E00181E08E0F25
:101200008093E001F0E0E154FE4F80818093BB00C9
:101210009091E0018091DF0129C0809103028093C9
:10122000BB0085EC8093BC0064CF90912502809137
:101230002402981758F5E091250281E08E0F8093E3
:101240002502F0E0EC5FFD4F8081E9CFE0912502BF
:1012500081E08E0F809325028091BB00F0E0EC5F6F
:10126000FD4F808390912502809124029817C8F247
:1012700085E8D8CFE091250281E08E0F809325028A
:101280008091BB00F0E0EC5FFD4F808380912702EE
:1012900081115CCF81E08093020284EA8093BC00DC
:1012A0001092280226CF85EC8093BC001092280271
:1012B00080910102803230F4E0910102F0E0EF51C0
:1012C000FE4F10826091010270E0E0915002F091B7
:1012D000510281EE91E00995109201020ACF10921D
:1012E000260234CFEF92FF920F931F93CF93DF9399
:1012F000EC017B01198218821B821A821D821C82DA
:10130000FB0101900020E9F731978F01061B170BB5
:10131000B8016F5F7F4F90E080E00E946A120097F3
:10132000B9F0998388831B830A832C813D81232B09
:1013300011F4FC0110821D830C83B701888199810F
:10134000DF91CF911F910F91FF90EF900C94391383
:1013500088819981009711F00E94E1111982188209
:101360001D821C821B821A82DF91CF911F910F91E7
:10137000FF90EF900895CF93DF93E5E6F2E01382BC
:10138000128288EE93E0A0E0B0E084839583A68388
:10139000B7838CE191E091838083E5ECF2E01382E6
:1013A00012828EE291E091838083118681E08483B2
:1013B00080E1828782E08387C9EBD2E019821882BC
:1013C0001A821C821B8219861B861A8662E00E9482
:1013D000E30062E083E00E94E30062E084E00E94B8
:1013E000E3008B819C8198609C838B83EEEBF2E021
:1013F00081818F778183838180788F6083838281ED
:1014000080788F60828360E771E089E892E00E94D3
:10141000720968E571E08FE892E00E94720962E467
:1014200071E085E992E00E94720961E571E08BE963
:1014300092E00E9472096EE571E081EA92E00E94FA
:10144000720964E671E087EA92E00E94720965E839
:1014500071E08DEA92E00E9472096BE671E083EB25
:1014600092E00E9472096AE771E081E792E00E94CF
:10147000720962E471E087E792E00E94720961E517
:1014800071E08DE792E00E9472096BE671E083E8FB
:1014900092E0DF91CF910C947209789484B58260C8
:1014A00084BD84B5816084BD85B5826085BD85B508
:1014B000816085BD80916E00816080936E00109286
:1014C0008100809181008260809381008091810001
:1014D0008160809381008091800081608093800092
:1014E0008091B10084608093B1008091B0008160F0
:1014F0008093B00080917A00846080937A0080911C
:101500007A00826080937A0080917A008160809373
:101510007A0080917A00806880937A001092C100EE
:1015200061E08CE00E94E30061E08CE00E949700A3
:1015300061E08DE00E94E300109257021092560283
:1015400010925502109254020E94CB018CE691E059
:1015500090935302809352028DE691E09093510252
:101560008093500280E18093CA028091D002823041
:1015700018F098E19093CA028093CD028BE39DE02E
:101580000197F1F76091CA02606270E085EC92E029
:101590000E9490028BE496E40197F1F76091CA02F1
:1015A000606270E085EC92E00E94900283E592E038
:1015B0000197F1F76091CA02606270E085EC92E0F9
:1015C0000E9490026091CA02606270E085EC92E035
:1015D0000E94900284E08093CB026CE070E085EC86
:1015E00092E00E9490020E94B00382E08093CC02BD
:1015F00066E070E085EC92E00E94900262E070E0AC
:1016000085EC92E00E9490028BE39FE10197F1F755
:1016100080E991E00E94B7056091CB026E7F6093F4
:10162000CB02686070E085EC92E00E94900268EE68
:1016300073E080E090E00E9439010E94B00361E60F
:10164000462E66E1562E64E9662E69E4762E70E039
:10165000272E70E0372EEE24E394F12CF7EECF2EF8
:10166000F3E0DF2E8091C20281114DC121E0209371
:10167000C20249B129B130E03695279536952795B4
:10168000C9018270992742FB222720F9282B40911B
:10169000BF02842F8295837090E0622F022E000C8F
:1016A000770B8617970709F4A7C0322F337032954E
:1016B000307F4F7C342B3093BF02880F991F880FE7
:1016C000991F822B880FB301A20104C075956795FD
:1016D000579547958A95D2F7CA0183709091BE02BB
:1016E000492F45954595459545954150840F8295DF
:1016F000807F9F70892B8093BE02233021F037FFBB
:101700007BC0211179C08091BE02807F09F474C032
:101710008FB7F89480905D0290905E02A0905F0277
:10172000B09060028FBF8091BE0291E087FF92E08F
:101730008091BE02807F892B8093BE022091BF02E0
:1017400026FF08C053E0591B952F9F70807F892B7F
:101750008093BE028091BE028F708093BE02809102
:10176000BC029091BD0284FD0FC02091C00227FDF4
:1017700002C090FF09C02091BE0232E0320F3F70DC
:10178000207F232B2093BE022091BE02622F6F7018
:101790003091C10260FB37F93093C1024091B90228
:1017A0005091BA0220FF77C02FEF3FEF240F351F73
:1017B0003093BA022093B902633008F06FC08160A1
:1017C0009093BD028093BC028091BC029091BD02B7
:1017D0002091C3023091C402B401621B730B6E31BD
:1017E000710508F060C082609093BD028093BC02D6
:1017F0009092C4028092C30289B182958170209137
:10180000BC023091BD0233FB992790F9592F58271C
:101810004091C00250FB47F94093C002981302C0A8
:1018200037FF6FC08FB7F89480905D0290905E0292
:10183000A0905F02B09060028FBF8091C302909130
:10184000C4029401281B390B4091C0028091BC0254
:101850009091BD0247FFF0C0BC0170687093BD025B
:101860006093BC0283FD3BC096FF1FC0233331054C
:1018700008F447C0886090689093BD028093BC02D2
:101880008091BE02807F88608093BE029092C402E5
:101890008092C30236C021E030E088CF653008F086
:1018A00093CF92608DCF8D7F9FCF4091BE02407FBE
:1018B0004093BE02AC01506C5093BD024093BC02F9
:1018C0002139314010F485FFE1CF1092BB028F71B6
:1018D0009F7C906C9093BD028093BC02D7CF84FD17
:1018E00098C04F7760E4469FA00111242417350764
:1018F00008F084C02091BE02277084609068211196
:10190000C3C01092C2021091BE02012F0F708091CD
:101910005B02882309F4B5C1809158029091590265
:1019200056E0589FE001599FD00D1124C757DD4F55
:1019300060E771E0CE010E949106882309F4BAC0E5
:1019400000910401109105012091020130910301E1
:1019500040910001509101016091080170910901CD
:1019600080910601909107010E9440048091BC0281
:101970009091BD0280FF6EC18E7F9093BD028093D7
:10198000BC020E94B0032091BE02822F8F70813072
:1019900081F48091580290915902207F2093BE02D9
:1019A00001968830910509F061C110925902109298
:1019B00058022091BE02822F8F70823081F4809174
:1019C000580290915902207F2093BE02009709F09F
:1019D00052C147E050E0509359024093580269E8E1
:1019E00072E080915802909159020E94A60621143B
:1019F000310409F437CE0E94000034CE82FD81CF3D
:101A00002091BE02207F26602093BE0280639068F2
:101A100061CF4091C1024F7770E2479FA00111242E
:101A20004217530708F06DCF2091BE02207F276038
:101A30002093BE02906A4ECF83FF2FC0233331051F
:101A4000E0F09C0124713327232B59F42091BE022E
:101A5000207F25602093BE022091BB022F5F209340
:101A6000BB029092C4028092C30295FD12C0837E95
:101A700094609093BD028093BC028091BC029091CF
:101A8000BD0296FF3ECF9F7B9093BD028093BC0228
:101A900038CF837E9F7D9461ECCF4091BB0244237D
:101AA00011F085FF02C09F77E4CF2139314028F340
:101AB000806EDFCF65E871E0CE010E949106882339
:101AC00059F004E010E027E030E045E050E066E93E
:101AD00070E086E490E048CF6BE671E0CE010E94B2
:101AE0009106882361F0083051F4107F1093BE02F4
:101AF00010925B0210925A020E94630737CF68E58A
:101B000071E0CE010E949106882359F10E9488005D
:101B1000882309F42BCF8091C1022FEF87FF21E0AA
:101B20008091000190910101821B910927FD9395FD
:101B3000181619068CF4909301018093000180918E
:101B4000000190910101883E93400CF40FCFD09298
:101B50000101C09200010ACFF0920101E092000160
:101B6000EECF62E471E0CE010E949106882319F065
:101B70000E94E304FBCE61E571E0CE010E94910674
:101B8000882319F00E948904F1CE6EE571E0CE0140
:101B90000E949106882359F10E948800882309F445
:101BA000E5CE8091C1022FEF87FF21E080910201F5
:101BB00090910301821B910927FD93951816190630
:101BC0008CF4909303018093020180910201909123
:101BD0000301883E93400CF4C9CED0920301C09219
:101BE0000201C4CEF0920301E0920201EECF64E65E
:101BF00071E0CE010E949106882309F4B7CE0E94BD
:101C00008800882309F4B2CE8091C1022FEF87FFAC
:101C100021E08091040190910501821B910927FD2B
:101C20009395181619068CF490930501809304017E
:101C30008091040190910501883E93400CF496CE6A
:101C4000D0920501C092040191CEF0920501E0927C
:101C50000401EECF0E948800811193CE8091BC02D6
:101C60009091BD0292FFC3CE9B7F87CE9093590285
:101C7000809358029ECE0197909359028093580208
:101C8000AECE80915A02882309F4ADC080915802EB
:101C900090915902049724F0109259021092580220
:101CA000809158029091590256E0589FE001599F47
:101CB000D00D1124CF58DD4F6AE771E0CE010E94AC
:101CC0009106882309F44EC0083009F04BC080917A
:101CD000BE02807F8093BE0260910801709109016D
:101CE00080910601909107010E94CE038091BC0271
:101CF0009091BD0280FF60C08E7F9093BD02809363
:101D0000BC020E94B0032091BE02822F8F708130EE
:101D100081F48091580290915902207F2093BE0255
:101D200001968430910509F053C010925902109227
:101D300058022091BE02822F8F70823081F48091F0
:101D4000580290915902207F2093BE02009709F01B
:101D500044C063E070E0709359026093580261E7F9
:101D600072E03FCE6BE671E0CE010E9491068823BF
:101D700071F0083061F48091BE02807F8093BE02D2
:101D800010925B0210925A020E946307AFCF62E486
:101D900071E0CE010E949106882319F00E94E304AD
:101DA000A5CF61E571E0CE010E949106882309F478
:101DB0009DCF0E9489049ACF0E9488008111A1CFF3
:101DC0008091BC029091BD0292FF11CE9B7F95CF76
:101DD0009093590280935802ACCF01979093590287
:101DE00080935802BCCF0E94630701CECF93DF934C
:101DF000C9E8D2E0269788819981009711F00E9466
:101E0000E11182E0C137D807A9F7C9EBD2E02697E4
:101E100088819981009711F00E94E11182E0C93810
:101E2000D807A9F7DF91CF9108950E94570F08F4C2
:101E300081E00895E89409C097FB3EF49095809561
:101E4000709561957F4F8F4F9F4F9923A9F0F92F80
:101E500096E9BB279395F695879577956795B795FE
:101E6000F111F8CFFAF4BB0F11F460FF1BC06F5FE4
:101E70007F4F8F4F9F4F16C0882311F096E911C0F6
:101E8000772321F09EE8872F762F05C0662371F017
:101E900096E8862F70E060E02AF09A95660F771F2B
:101EA000881FDAF7880F9695879597F90895990F07
:101EB0000008550FAA0BE0E8FEEF16161706E80714
:101EC000F907C0F012161306E407F50798F0621B35
:101ED000730B840B950B39F40A2661F0232B242B0A
:101EE000252B21F408950A2609F4A140A6958FEF29
:101EF000811D811D08950E948E0F0C94FF0F0E947A
:101F0000F10F38F00E94F80F20F0952311F00C9497
:101F1000E80F0C94EE0F11240C9433100E94101053
:101F200070F3959FC1F3950F50E0551F629FF0012C
:101F3000729FBB27F00DB11D639FAA27F00DB11D45
:101F4000AA1F649F6627B00DA11D661F829F2227CE
:101F5000B00DA11D621F739FB00DA11D621F839F55
:101F6000A00D611D221F749F3327A00D611D231F2B
:101F7000849F600D211D822F762F6A2F11249F5779
:101F800050409AF0F1F088234AF0EE0FFF1FBB1F7C
:101F9000661F771F881F91505040A9F79E3F51053B
:101FA00080F00C94E80F0C9433105F3FE4F3983EFC
:101FB000D4F3869577956795B795F795E7959F5FE5
:101FC000C1F7FE2B880F911D9695879597F9089577
:101FD00097F99F6780E870E060E008959FEF80ECDC
:101FE000089500240A94161617061806090608957F
:101FF00000240A9412161306140605060895092EE5
:102000000394000C11F4882352F0BB0F40F4BF2B53
:1020100011F460FF04C06F5F7F4F8F4F9F4F089593
:1020200057FD9058440F551F59F05F3F71F0479589
:10203000880F97FB991F61F09F3F79F0879508956E
:10204000121613061406551FF2CF4695F1DF08C08D
:10205000161617061806991FF1CF869571056105AA
:1020600008940895E894BB2766277727CB0197F952
:1020700008952F923F924F925F926F927F928F922C
:102080009F92AF92BF92CF92DF92EF92FF920F9307
:102090001F93CF93DF93CDB7DEB7CA1BDB0B0FB611
:1020A000F894DEBF0FBECDBF09942A8839884888CE
:1020B0005F846E847D848C849B84AA84B984C88464
:1020C000DF80EE80FD800C811B81AA81B981CE0F5B
:1020D000D11D0FB6F894DEBF0FBECDBFED01089540
:1020E0005058BB27AA270E9488100C94FF0F0E940B
:1020F000F10F38F00E94F80F20F039F49F3F19F4E7
:1021000026F40C94EE0F0EF4E095E7FB0C94E80F28
:10211000E92F0E94101058F3BA176207730784075B
:10212000950720F079F4A6F50C9432100EF4E095A2
:102130000B2EBA2FA02D0B01B90190010C01CA0181
:10214000A0011124FF27591B99F0593F50F4503E2C
:1021500068F11A16F040A22F232F342F4427585F1E
:10216000F3CF469537952795A795F0405395C9F736
:102170007EF41F16BA0B620B730B840BBAF09150EE
:10218000A1F0FF0FBB1F661F771F881FC2F70EC08D
:10219000BA0F621F731F841F48F487957795679560
:1021A000B795F7959E3F08F0B0CF9395880F08F04C
:1021B0009927EE0F9795879508950E94E4106894EB
:1021C000B1110C94331008950E94181088F09F5795
:1021D00098F0B92F9927B751B0F0E1F0660F771F4B
:1021E000881F991F1AF0BA95C9F714C0B13091F041
:1021F0000E943210B1E008950C943210672F782FAE
:102200008827B85F39F0B93FCCF386957795679505
:10221000B395D9F73EF490958095709561957F4F71
:102220008F4F9F4F08950E94570F08F48FEF089526
:102230000E94570F880B990B0895A1E21A2EAA1B32
:10224000BB1BFD010DC0AA1FBB1FEE1FFF1FA21766
:10225000B307E407F50720F0A21BB30BE40BF50B63
:10226000661F771F881F991F1A9469F760957095EC
:10227000809590959B01AC01BD01CF010895EE0FB3
:10228000FF1F0590F491E02D09940F931F93CF93B6
:10229000DF938230910510F482E090E0E091D30268
:1022A000F091D40230E020E0B0E0A0E0309799F463
:1022B0002115310509F44AC0281B390B243031059A
:1022C000D8F58A819B816115710589F1FB019383A2
:1022D0008283FE0111C04081518102811381481720
:1022E0005907E0F04817590799F4109761F01296D2
:1022F0000C93129713961C933296CF01DF91CF91D6
:102300001F910F9108950093D3021093D402F4CF3C
:102310002115310551F04217530738F0A901DB01AF
:102320009A01BD01DF01F801C1CFEF01F9CF909310
:10233000D4028093D302CDCFFE01E20FF31F81932D
:1023400091932250310939832883D7CF2091D1022C
:102350003091D202232B41F420910C0130910D01D8
:102360003093D2022093D10220910A0130910B01C7
:102370002115310541F42DB73EB740910E01509122
:102380000F01241B350BE091D102F091D202E2172C
:10239000F307A0F42E1B3F0B2817390778F0AC0188
:1023A0004E5F5F4F2417350748F04E0F5F1F509365
:1023B000D2024093D102819391939FCFF0E0E0E06D
:1023C0009CCFCF93DF930097E9F0FC013297138203
:1023D0001282A091D302B091D402ED0130E020E04E
:1023E0001097A1F420813181820F931F2091D10297
:1023F0003091D2022817390709F061C0F093D20258
:10240000E093D102DF91CF910895EA01CE17DF0763
:10241000E8F54A815B819E0141155105B1F7E9015B
:10242000FB83EA8349915991C40FD51FEC17FD072F
:1024300061F4808191810296840F951FE90199834F
:102440008883828193819B838A83F0E0E0E0129607
:102450008D919C9113970097B9F52D913C9111970F
:10246000CD010296820F931F2091D1023091D202AA
:102470002817390739F6309751F51092D402109287
:10248000D302B093D202A093D102BCCFD383C28334
:1024900040815181840F951FC817D90761F44E5FA1
:1024A0005F4F88819981480F591F518340838A81EA
:1024B0009B81938382832115310509F0B0CFF0937E
:1024C000D402E093D3029ECFFD01DC01C0CF138282
:1024D0001282D7CFB0E0A0E0E0E7F2E10C943B102D
:1024E0008C01009751F4CB010E9445118C01C80169
:1024F000CDB7DEB7E0E10C945710FC01E60FF71FF3
:102500009C0122503109E217F30708F49DC0D9015C
:10251000CD91DC911197C617D70798F0C530D1053A
:1025200030F3CE0104978617970708F3C61BD70B25
:102530002297C193D1936D937C93CF010E94E111B7
:10254000D6CF5B01AC1ABD0A4C018C0E9D1EA0912A
:10255000D302B091D402512C412CF12CE12C1097D4
:1025600031F58091D1029091D2028815990509F038
:102570005CC04616570608F058C080910A01909139
:102580000B01009741F48DB79EB740910E01509119
:102590000F01841B950BE817F90708F055C0F0935D
:1025A000D202E093D102F90171836083A0CF8D91B3
:1025B0009C91119712966C90129713967C9013979A
:1025C000A815B90559F56C0142E0C40ED11CCA1416
:1025D000DB0420F1AC014A195B09DA011296159768
:1025E00080F06282738251834083D9016D937C9322
:1025F000E114F10471F0D7011396FC93EE93129756
:1026000076CF22968C0F9D1FF90191838083F30171
:10261000EFCFF093D402E093D30269CF4816590666
:1026200008F42C017D01D3019ACFCB010E94451102
:102630007C01009749F0AE01B8010E942713C80140
:102640000E94E111870153CF10E000E050CFFB0161
:10265000DC0102C001900D9241505040D8F708951E
:10266000FB01DC018D91019080190110D9F3990BC8
:102670000895FB01DC0101900D920020E1F708951F
:1026800010E0CDE5D0E004C0FE010E943F1121968C
:0A269000CE35D107C9F7F894FFCF4B
:10269A000100010001000A0014000000D5028000B8
:1026AA0000004000140054000000000061023402DF
:1026BA00CB030A022D021A020B0200000000C30318
:1026CA006E01CB03CA036E616E00696E66006F7697
:1026DA0066004475726174696F6E007573006D737C
:1026EA0000506572696F640044656C6179004275D7
:1026FA0072737400416D6F756E7400457869740069
:10270A0042757273744D6F64650053696E676C65C8
:10271A004D6F6465004D616E75616C4D6F64650047
:0C272A00626574656C676576736500007D
:00000001FF
